:020000040800F2
:100000008809002001010008331D0008271C000892
:10001000311D0008710600080527000800000000D7
:1000200000000000000000000000000005230008A0
:100030007306000800000000E521000807230008FF
:100040001B0100081B0100081B0100081B01000820
:100050001B0100081B0100081B0100081B01000810
:100060001B0100081B0100081B0100081B01000800
:100070001B0100081B0100081B0100081B010008F0
:100080001B0100081B0100081B0100081B010008E0
:100090001B0100081B0100081B0100081B010008D0
:1000A0001B0100081B0100081B0100081B010008C0
:1000B0001B01000891230008000000001B0100083C
:1000C0001B0100080000000000000000E9210008FA
:1000D00000000000F92600081B01000800000000D5
:1000E0001B0100081B0100081B010008DFF80CD0F1
:1000F00000F08EFA004800476D2E000888090020A5
:100100000648804706480047FEE7FEE7FEE7FEE7B1
:10011000FEE7FEE7FEE7FEE7FEE7FEE7492300080D
:10012000ED000008202A04DB203A21FA02F0002129
:10013000704721FA02F3D040C2F1200291400843F7
:1001400019467047D2B201E000F8012B491EFBD2DC
:1001500070470022F6E710B513460A4604461946D2
:10016000FFF7F0FF204610BD2DE9FE4F804681EAE3
:100170000300C00F0C46009021F0004123F0004521
:10018000B8EB0200A94105D24046214690461C46E4
:100190000B46024623F00040104347D0270DC7F31B
:1001A0000A00C3F30A510290401A019040286BDA0A
:1001B000C3F3130040F4801B0098924620B1002343
:1001C000D2EB030A63EB0B0B01985946C0F14002D6
:1001D000504600F09FF906460D4650465946019A92
:1001E00000F0A7F910EB08006141002487EA1152E2
:1001F00084EAE7731A4340D0009A62B3019A012A55
:100200004FEA075215DC001B61EB02014FF0004280
:1002100002EA0752CDE90042001C41F58011324646
:100220002B4600F0A7F903B0BDE8F08F4046214609
:10023000F9E7001B61EB0201001C41F58013001877
:100240005B412018A2F5001747EB030140EAD57087
:10025000B6196D4111E06D084FEA360645EAC075E2
:100260004FEA0752001B61EB0201001C41F58011AF
:1002700049084FEA30000019514132462B4603B07D
:10028000BDE8F04F00F067B900980122400000235C
:10029000D0EB020263EBE073009821464FEAE07472
:1002A000B8EB000061EB0401E9E783F000435BE792
:1002B00081F0004158E72DE9FE4F81EA030404F084
:1002C000004421F0004100944FF0000B23F0004364
:1002D00050EA01045ED052EA03045BD0C3F30A542F
:1002E000C1F30A552C44A4F2F3340194A0FB025448
:1002F000C1F3130141F48011C3F3130343F48013DA
:1003000001FB024400FB034E840A970A44EA81542D
:1003100047EA8357A4FB076802958D0A05FB07850A
:100320004FEA932C04FB0C542705029D4FEA065814
:1003300047EA1637B5EB08056EEB070C870E920EF1
:1003400047EA811742EA8312A7FB0201B6EB0B01D1
:1003500064EB00042B0D43EA0C335E1844EB1C5095
:10036000DA465146E7FB0201C5F313044FEA0B33AB
:1003700043EA14534FEA0432019C43EA0603A4F112
:100380000C040294009CCDE900B400F0F3F803B033
:10039000BDE8F08F00200146F9E72DE9F04D81EA34
:1003A000030404F0004B21F0004514464FF0000A0E
:1003B00023F0004150EA050220D054EA01021DD08A
:1003C000C5F30A570246C5F31303C1F31300C1F383
:1003D0000A5640F4801543F48013A7EB0608101B5F
:1003E000D64608F2FD3873EB050002D308F1010888
:1003F00001E092185B41B8F1000F03DA00200146DA
:10040000BDE8F08D00204FF48011064684460EE0D2
:10041000171B73EB050705D3121B63EB050306439C
:100420004CEA010C49084FEA300092185B4150EA4F
:100430000107EDD152EA030012D082EA040083EAF8
:100440000501084305D0101BAB4106D20122002351
:1004500006E000224FF0004302E06FF0010253106B
:100460001AEB06004CEB085110EB0A0041EB0B01B4
:10047000BDE8F04D00F06FB870B521F000430343C4
:100480000CD0C1F30A550024D5EB040564EB04033A
:10049000D617AD1AB34102DB0020014670BD20180B
:1004A00041EB025170BD70B5C1F30A5201F0004535
:1004B0000024C1F3130140F2FF3341F480119A424A
:1004C00001DA002070BD40F233439A42A2F2334277
:1004D00003DC5242FFF726FE00E090402C43F1D0AF
:1004E000404270BD30B5041E71F1000404DB4FF0D2
:1004F0000044404264EB0101141E73F1000405DB6B
:100500001C464FF00043524263EB04038B4208BF8A
:10051000824230BD202A04DB203A00FA02F100209A
:1005200070479140C2F1200320FA03F31943904031
:100530007047202A06DBCB17203A41FA02F043EA43
:10054000E07306E041FA02F3D040C2F1200291408C
:1005500008431946704710B5141E73F1000408DAF9
:10056000401C41F1000192185B411A4301D120F077
:10057000010010BD2DE9F04D92469B4611B1B1FA34
:1005800081F202E0B0FA80F220329046FFF7C2FF1B
:1005900004460F4640EA0A0041EA0B0153465A4618
:1005A000084313D0114653EA010019D0C8F14002A4
:1005B0005046FFF7B7FD05460E465046594642469F
:1005C000FFF7A8FF084305D0012004E02046394684
:1005D000BDE8F08D0020054346EAE0762C43374322
:1005E0000A986305E40AA0EB08000022FD0A44EA29
:1005F00047540A3002D500200146E9E701051019E9
:100600006941DDE9084500196941BDE8F04DA2E7FF
:10061000064C074D06E0E06840F0010394E807004F
:1006200098471034AC42F6D3FFF764FD90490008B8
:10063000B04900080EB5C10F80EAE0700844CA074F
:10064000002140F233438DE80E000A460B46FFF7C7
:1006500091FF03B000BD0EB540F23341029100217D
:10066000CDE900110A460B46FFF784FF03B000BD39
:10067000FEE7704710B590F821100024022903D03E
:100680000421816301243DE001680A6822F00E0222
:100690000A6001680A6822F001020A601A4A0168C9
:1006A000914201D1012121E0174A1432914201D136
:1006B00010211BE0144A2832914201D1891515E01E
:1006C000114A3C32914201D189140FE00E4A503256
:1006D000914202D14FF4803108E00B4A64329142DA
:1006E00002D14FF4801101E04FF08071064A083AC0
:1006F0005160012180F82110002180F82010416B09
:1007000001B18847204610BD0800024070B504467C
:1007100000F0F2F80546601C02D00448007804445A
:1007200000F0EAF8401BA042FAD370BD9C00002004
:100730002DE9F84FDFF894A100220AF1040B1446CA
:100740004FF0010C4FF00F090BF1040E0B680CFA7F
:1007500004F52B40AB4271D15D4E4F68A7EB060804
:10076000B7422BD00DDC032F34D005DC37B3012F7B
:1007700019D0022F2FD11BE0112F16D0122F2AD102
:1007800019E0B8F5881F19D006DCB8F5803F15D000
:10079000B8F5801F1FD111E0B8F5001F0ED0B8F5D5
:1007A000041F18D10AE0CA6815E0CA68121D12E0D9
:1007B000CA6808320FE0CA680C320CE08A682AB1B5
:1007C000012A4FF0080203D0456104E0042202E050
:1007D000056100E00022FF2B01D8074601E000F18F
:1007E00004074FEA840601D9A6F120063D6809FAFC
:1007F00006F825EA080502FA06F645EA06053D6010
:100800004D68ED005CD5334DAE6946F00106AE6132
:10081000AD6924F0030605F0010500952E4D77190A
:10082000BD68A607360F09FA06F825EA0805DFF8BD
:10083000AC80404503D14FF0000810E040E0DFF805
:10084000A080404502D14FF0010808E0DFF8948015
:10085000404502D14FF0020801E04FF0030808FACA
:1008600006F848EA0508C7F808804D68ED0305D585
:10087000DAF800501D43CAF8005004E0DAF80060CE
:100880009E43CAF800604D68DBF80060AD035D462A
:1008900001D51E4300E09E432E604D68DEF80060E7
:1008A000ED02754601D51E4300E09E432E604D6863
:1008B000AD020D4D2E6801D51E4300E09E432E6013
:1008C000641C102CFFF442AFBDE8F88F0004014017
:1008D000000011100010024000000140000801401B
:1008E000000C0140001001400C0401400AB10161FC
:1008F00070470904FBE7000001488068704700006A
:100900009C00002002488168027811448160704791
:100910009C000020074810B5016841F010010160FB
:10092000032000F073F8002000F006F800F024F82F
:10093000002010BD0020024070B50D4D04464FF45C
:100940007A712878B1FBF0F00A490968B1FBF0F040
:1009500000F096FC48B9102C07D200222146501E08
:1009600000F034F800206C6070BD012070BD000004
:100970009C000020A80000200C4808B5816941F0C7
:1009800001018161816901F001010091C16941F0BA
:100990008051C161C06900F08050009004484168F6
:1009A00021F0E06141F08061416008BD001002402B
:1009B0000000014000F01F02012191404009800029
:1009C00000F1E020C0F8001170470000F0B40E4BB9
:1009D0001B680C46C3F30223C3F10705042D00D99D
:1009E0000425191D072901D2002300E0DB1E012682
:1009F00006FA05F1491E214099409E40761E164098
:100A00003143F0BC01F096B90CED00E0064900F06E
:100A1000070208684FF6FF03184040EA0220034A25
:100A200010430860704700000CED00E00000FA057C
:100A30002DE9F047DFF8548105460E46D8F800004E
:100A400000F00700B0420CD2D8F8001021F00701E6
:100A50003143C8F80010D8F8000000F00700B04299
:100A60006FD128684A4C810712D5400703D56068CA
:100A700040F4E06060602878000703D5606840F4C7
:100A8000605060606068A96820F0F0000843606012
:100A90002878C00744D06868012816D02168022849
:100AA00016D0890700294CDA616821F0030101435F
:100AB0006160FFF721FF6968074641F2883001292C
:100AC0000ED00229814618D026E021688903E9E783
:100AD0008901E7E7FFF710FFC11B494501D918E07D
:100AE00081466068C0F381000128F3D118E000BF9F
:100AF000FFF702FFC11B49450BD86068C0F38100B6
:100B00000228F5D10CE000BFFFF7F6FEC11B4945F6
:100B100002D90320BDE8F087606810F00C0FF3D114
:100B2000D8F80010404601F00701B1420BD9016826
:100B300021F0070131430160006800F00700B04276
:100B400001D00120E6E72878400705D56068E9680C
:100B500020F4E060084360602878000706D56068EC
:100B6000296920F4605040EAC100606000F036F866
:100B70006168084AC1F30311515CC8400649086026
:100B80000020FFF7D9FE0020C4E70000002002404B
:100B90000010024054480008A800002004480549FD
:100BA00000684968044AC1F30221515CC84070479B
:100BB000A8000020001002406448000804480549CD
:100BC00000684968044AC1F3C221515CC8407047BB
:100BD000A8000020001002406448000812A185B05F
:100BE0000FC98DE80F0014A0144A006804905168E2
:100BF000134801F00C03042B10D0082B0ED1C1F3C5
:100C00008343C9031DF803000AD5516804AAC1F340
:100C10004041515C0A4A5043B0FBF1F005B07047C7
:100C200008494843FAE700000203040506070809DB
:100C30000A0B0C0D0E0F10100102000000100240F4
:100C400000127A0000093D002DE9F84F04460078B3
:100C5000B94DC00748D06868C0F38100012807D0AB
:100C60006868C0F38100022809D16868C00306D50E
:100C70002868800338D5606800286FD034E0606849
:100C8000B0F5803F0BD010B1B0F5A02F11D028687F
:100C900020F480302860286820F4802002E0286852
:100CA00040F480302860606888B1FFF725FE064672
:100CB00009E0286840F480202860F0E7FFF71CFE78
:100CC000801B642875D828688003F7D50CE0FFF7EF
:100CD00013FE064605E000BFFFF70EFE801B6428EA
:100CE000F0D828688003F7D42078944E80074FF01E
:100CF00001094FF000083BD5686810F00C0F07D0D1
:100D00006868C0F38100022809D16868C00306D46E
:100D10002868800714D5206901281FD110E02069B8
:100D2000B0B1C6F80090FFF7E7FD074605E000BF49
:100D3000FFF7E2FDC01B0228C4D828688007F7D55A
:100D40002868616920F0F80040EAC10028600FE0DF
:100D5000C6F80080FFF7D0FD074606E0E9E000BFD7
:100D6000FFF7CAFDC01B022823D828688007F7D4E4
:100D7000207800072CD57248A169D9B1C0F800903D
:100D8000FFF7BAFD074604E0FFF7B6FDC01B0228D7
:100D90000FD8686A8007F7D56A484FF4FA5100689F
:100DA000B0FBF1F0009000BF0098411E0091FAD214
:100DB0000EE080E0C0F80080FFF79EFD074604E0EB
:100DC000FFF79AFDC01B022875D8686A8007F7D420
:100DD0002078400760D5E8690027C00008D4E8699A
:100DE00040F08050E861E869012700F080500090F1
:100DF00055480168C90513D40168834641F48071E0
:100E00000160FFF779FD824606E000BFFFF774FD41
:100E1000A0EB0A0064284ED8DBF80000C005F5D529
:100E2000E06801280AD008B1052813D0286A20F00C
:100E300001002862286A20F0040002E0286A40F0DD
:100E400001002862E06841F2883B98B1FFF754FD49
:100E500082460BE0286A40F004002862EEE700BFFB
:100E6000FFF74AFDA0EB0A0159455AD8286A8007C6
:100E7000F6D50CE0FFF740FD824605E0FFF73CFDAC
:100E8000A0EB0A0159454CD8286A8007F6D41FB157
:100E9000E86920F08050E861E06988B36968C1F3CF
:100EA0008101022945D00228C6F8608004D0FFF7EE
:100EB00023FD044638E034E0FFF71EFD074604E05A
:100EC000FFF71AFDC01B02282BD828688001F7D431
:100ED000206AB0F5803F05D16868A16820F4003031
:100EE00008436860D4E908010843696821F4741173
:100EF00008436860C6F86090FFF7FEFC044606E011
:100F000015E000BFFFF7F8FC001B022809D828688D
:100F10008001F7D50BE000BFFFF7EEFC001B0228B5
:100F200002D90320BDE8F88F28688001F4D400209E
:100F3000F8E70120F6E700000010024000004242FE
:100F400080044242A800002000700040704700006A
:100F500038B504460068426881684B0605D4CB0763
:100F600003D0530601D5216C04E08B0707D5130687
:100F700005D5616C01B02046BDE83040084711F04E
:100F8000600F3FD093063DD54B060AD594F85130FB
:100F9000032B34D0636D43F004036365C368836837
:100FA0000093890609D5616D41F001016165816891
:100FB0000091016821F040010160606D002821D09E
:100FC0002068416821F0E0014160012084F851006F
:100FD000900718D02068416821F0030141600C4D52
:100FE000E06C18B14563E06CFFF744FBA06C00288F
:100FF00008D04563A06CBDE83840FFF73BBBC16833
:101000008068009038BD2046FFF7A0FF38BD000083
:101010001522000870B5040005D00025A56294F8DB
:10102000510010B104E0012070BD204600F034F8FA
:10103000022084F851002068016821F0400101601D
:10104000D4E901010843D4E903121143084361695B
:101050000843218B01F400710843E1690843216AC8
:101060000843A16A084321680860A069042101EAD5
:101070001040616A0843216848602168E06A08619D
:101080002068C16921F40061C1616565012084F8AF
:101090005100002070BD000000B585B00021009116
:1010A00001910291039100681749884229D117489C
:1010B000816941F480518161816901F48051049119
:1010C000816941F0080181618069694600F008008A
:1010D00004902820009002200190032003900C48E7
:1010E000FFF726FB0B48416841F0E06141F0010148
:1010F0004160002211462320FFF768FC2320FFF700
:1011000059FC05B000BD0000003001400010024055
:10111000000C0140000001402DE9F84F044690F812
:1011200050000026994617460D4601280DD04FF075
:10113000010B84F850B0FFF7DFFB804694F85100B4
:10114000B246012804D0022694E00220BDE8F88FC0
:10115000002D7BD0002F79D0032084F85100C4F8F3
:1011600054A02563A786E786C4F838A0A4F83CA05D
:10117000A4F83EA0C4F844A0C4F840A0A068B0F50C
:10118000004F04D12068016841F48041016020686B
:101190000168490603D4016841F040010160E0683C
:1011A000B0F5006F606804D030B3E08E012823D022
:1011B0003EE010B1E08E01281AD135F8021B2068FC
:1011C00005E020688168890706D535F8021BC160F3
:1011D000E08E401EE0860BE0B9F1000F34D0B9F18B
:1011E000FF3F05D0FFF788FBA0EB080149452BD254
:1011F000E08E0028E5D11EE0216815F8010B087388
:1012000006E020688168890706D515F8011B01737F
:10121000E08E401EE0860BE0B9F1000F14D0B9F16A
:10122000FF3F05D0FFF768FBA0EB080149450BD253
:10123000E08E0028E5D14B46012202212046CDF860
:10124000008000F0EFFF10B1032613E011E04246EA
:101250004946204600F0CEFF18B1012620206065E7
:1012600008E0A06818B92068C16880680090606DC7
:1012700000B1012684F851B084F850A0304665E7EB
:1012800010B5401EB0F1807F01D3012010BD4FF09A
:10129000E02460610F21601700F04CFD0020A06188
:1012A00007202061002010BD7047704730B590F8CE
:1012B0003C20012A20D0012280F83C20022380F823
:1012C0003D3003685C6824F070045C6003685C680F
:1012D0000D682C435C6003689C6824F080049C606B
:1012E00003689C6849680C439C6080F83D2000219D
:1012F00080F83C10084630BD022030BD10B5040017
:1013000003D094F83D0010B107E0012010BD00208B
:1013100084F83C00204600F00DF8022084F83D00DF
:10132000211D206801F03AF8012084F83D000020DA
:1013300010BD000008B500680B49884212D10B4867
:10134000C16941F00201C161C069002200F00200E0
:10135000009011461D20FFF739FBBDE808401D2015
:10136000FFF728BB08BD0000000400400010024049
:101370000168CA6842F00102CA600068016841F071
:10138000010101600020704770B5044690F83C00F0
:10139000012817D0012584F83C50022084F83D0034
:1013A0002068826822F0770222F47F428260086817
:1013B000502837D00DDC202859D005DC88B3102800
:1013C00041D151E0022070BD302853D040283AD19D
:1013D0003FE060282ED070280BD0B0F5805F03D09E
:1013E000B0F5005F2FD110E02068816821F007017F
:1013F00015E0CB68D1E90121206800F0FDFF2168EC
:10140000886840F0770088601DE0CB68D1E9012151
:10141000206800F0F1FF2068816841F4804181601C
:1014200011E01EE0CA684968206800F0F7FF50210B
:10143000206806E0CA684968206801F000F8602169
:10144000206800F0E3FF84F83D50002084F83C0061
:1014500070BDCA684968206800F0E0FF402120683C
:10146000EFE700212068ECE710212068E9E7202160
:101470002068E6E730212068E3E7704770B504464E
:10148000006801694FF00005C943890715D4C16898
:10149000C943890711D4E91E016101202077206822
:1014A00080698007204602D0FFF7E7FF04E000F0E4
:1014B00098F8204600F096F8257720680169C9431E
:1014C000490717D4C168C943490713D46FF0040111
:1014D0000161022020772068806910F4407F204657
:1014E00002D0FFF7CAFF04E000F07BF8204600F0CE
:1014F00079F8257720680169C943090716D4C168BE
:10150000C943090712D46FF0080101610420207754
:101510002068C0698007204602D0FFF7AEFF04E0D4
:1015200000F05FF8204600F05DF82577206801693B
:10153000C943C90617D4C168C943C90613D46FF09B
:1015400010010161082020772068C06910F4407FF5
:10155000204602D0FFF791FF04E000F042F8204659
:1015600000F040F8257720680169C943C90708D110
:10157000C168C943C90704D1891E0161204600F032
:1015800033F820680169C943090609D4C168C94311
:10159000090605D46FF0800101612046FFF784FE43
:1015A00020680169C943490609D4C168C94349068D
:1015B00005D46FF040010161204600F087F92068F2
:1015C0000169C94389060BD4C168C943890607D498
:1015D0006FF0200101612046BDE87040FFF765BE55
:1015E00070BD7047704700002DE9F04FA9490068B1
:1015F000A94C09688DB04FF0000B88427ED1D4E928
:1016000018010122FEF738FF0022A44BFEF7C5FEA9
:101610000022A34BCDE90201FEF74DFE0191D4E972
:10162000125680462A463346FEF745FE81468A46D4
:1016300000229C4B28463146FEF7AFFED4E9142326
:10164000CDE90823FEF790FD02460B46404601997E
:10165000FEF731FE074688460022934B2846314666
:10166000FEF79BFE05460E46DDE9080100228D4B84
:10167000FEF793FED4E91623FEF776FD2A4633469D
:10168000FEF772FD05460E46DDE902010022874B9A
:10169000FEF711FE2A463346FEF70DFE05460E46BE
:1016A0004846514601F0A6FC0022814BFEF703FE9E
:1016B0000022804BFEF758FDFEF7F5FE06904846E7
:1016C000514601F071FB0022794BFEF7F4FD002238
:1016D000794BFEF7EDFDFEF7E6FE824638464146C1
:1016E00001F088FC0022754BFEF7E5FD0022714BEE
:1016F000FEF73AFDFEF7D7FE814600E0C7E0384628
:10170000414601F051FB00226C4BFEF7D4FD002254
:10171000694BFEF7CDFDFEF7C6FE0746284631466B
:1017200001F068FC0022664BFEF7C5FD0022614B0C
:10173000FEF71AFDFEF7B7FE80462846314601F057
:1017400033FB00225E4BFEF7B6FD00225A4BFEF73C
:10175000AFFDFEF7A8FE0546D4E9120100221346AC
:10176000FEF7C0FE07D0CDF800B0D4E90B2320214E
:10177000402000F072FBD4E9140100221346FEF76A
:10178000B1FE07D0CDF800B0D4E90D2320214020D0
:1017900000F063FBD4E9160100221346FEF7A2FE17
:1017A00007D0CDF800B0D4E90F232021402000F06D
:1017B00054FB0698C4E90F85C4E90B0AC4E90D97E8
:1017C0000C2502232A4605213A20009500F0BCFC96
:1017D000012303221A215520009500F0B5FC0123B6
:1017E00006222F213D20009500F0AEFC01230922A6
:1017F0001A212520009500F0A7FC01250095D4E9C9
:101800000B232021402000F028FB0095D4E90D2374
:101810002021402000F021FB0095D4E90F23202156
:10182000402000F01AFB00F0E5FB264DD4E9120140
:1018300000222B46FEF798FC1A4E00223346C4E9DC
:101840001201FEF74FFE22D1D4E9140100222B46EB
:10185000FEF78AFC00223346C4E91401FEF742FE7B
:1018600012D1D4E9160100222B46FEF77DFC00229E
:10187000154BC4E91601FEF735FE02D10020C4E97C
:1018800016000020C4E914000020C4E912000DB0C5
:10189000BDE8F08F080500200000002000807640A1
:1018A0000000184000004E400020AC4000003E40C8
:1018B00000003B4000005040000040400000354028
:1018C00000002A400000F03F0000284070477047A9
:1018D00070B5026804461068D168536910F00F0FA4
:1018E00050D003F0010501F4907635435DD0C20776
:1018F00005D0CA0503D5E26B42F00102E26342075C
:1019000005D5DA0703D0E26B42F00202E2638207F8
:1019100005D5DA0703D0E26B42F00402E263020766
:1019200005D5DA0703D0E26B42F00802E263E26B0E
:10193000002A33D0800604D5880602D5204600F060
:10194000A6FD20684069E16BC0F38010090700D450
:1019500028B3204600F08DFD2068416949061AD55C
:10196000416921F040014161606BA0B11B494163B5
:10197000606BFEF77FFE002810D0606B416BBDE806
:1019800070400847830610D58B060ED52046BDE86B
:10199000704000F07CBD2046FFF799FF70BD2046E7
:1019A000FFF795FF0020E06370BD030606D50B0628
:1019B00004D52046BDE8704000F06CBE4006F3D56B
:1019C0004806F1D5D168204621F04001D1602021A0
:1019D00084F8391000F026F970BD00006324000877
:1019E00070B5040004D094F83900002510B106E069
:1019F000012070BD84F83850204600F023F82420E0
:101A000084F839002068C16821F40051C160204683
:101A100000F088FD2068016921F49041016120688F
:101A2000416921F02A0141612068C16841F40051F7
:101A3000C160E563202084F8390084F83A00002072
:101A400070BD000010B586B0002100910191029197
:101A500003910068174988422AD11748816941F4E7
:101A600080418161816901F480410491816941F083
:101A7000040181618069114C00F0040004904FF46E
:101A80008060009069462046FEF752FE6015009087
:101A9000022001900320039069462046FEF748FE8D
:101AA000002211462520FEF791FF2520FEF782FF38
:101AB00006B010BD0038014000100240000801408F
:101AC00090F83A30202B22D1F9B1F2B190F83830A9
:101AD000012B1CD081628285C2850021C163222234
:101AE00080F83A2080F838100168CA6842F48072A1
:101AF000CA6001684A6942F001024A610068C1682F
:101B000041F02001C1600020704701207047022091
:101B100070470000F8B5414C0025012621782029A6
:101B200013D020460C27C0690D2918D06368002BFC
:101B300052D000EB800001EB4002303AE2612069B4
:101B4000401C2061042B3FD046E0A06A18B1C4E9D4
:101B50000256A562F8BDC4E90156A662F8BD01F0BF
:101B600071F92E49683108B11D2000E01C20886001
:101B7000206A421E0C2A1DD251F82010606A814250
:101B800018DB012816DB0097237C0F210820E2696F
:101B900000F0DAFA0097237D1E210820226A00F067
:101BA000D3FA0097237E2D210820626A00F0CCFA38
:101BB00000F020FA65622562E561A5616561256135
:101BC000E560C4E90165F8BDC3B20F2108200097A4
:101BD00000F0BAFA00F00EFAA06850B1206A21783D
:101BE00000EB800001EB4000303820626069401C4F
:101BF0006061E06850B1606A217800EB800001EB21
:101C0000400030386062A069401CA061BDE8F84027
:101C1000012202490248FFF753BF000000000020E4
:101C2000480500207047FEE770B586B000251C48C7
:101C30000095019502950395816941F00801816144
:101C4000816901F008010491816941F020018161FD
:101C5000816901F020010491816941F004018161F1
:101C60008069104E00F00400049000225821304694
:101C7000FEF73CFE182001248DE83100022569465C
:101C800030460395FEF754FD4020CDE90004694637
:101C90003046CDE90245FEF74BFD06B070BD0000B1
:101CA00000100240000801400B480A494FF400723E
:101CB00001604FF48271416000218160C160016167
:101CC000C0E90512C1610162416281620A21C162FB
:101CD000FFF7A0B900300140B004002010B586B075
:101CE00000241248009401940294039404940E4931
:101CF000059401604FF4FA51C0E90114C910C0E91C
:101D000003148461FFF7FAFA4FF48050009069469B
:101D10000648FFF739FB049404A904480594FFF72B
:101D2000C5FA06B010BD0000000400400805002000
:101D3000FEE770470907090E002806DA00F00F00D9
:101D400000F1E02080F8141D704700F1E02080F8D9
:101D50000014704730B40021074B0A465FF00000C2
:101D600003EBC004401C62548028F9DB491C08299D
:101D7000F4DB30BC00F03EB9B00000207F280ED864
:101D80003F290CD8CA0801F0070301219940044BF0
:101D900003EBC003985C61EA0000C04398547047AD
:101DA000B00000202DE9F84F16460F46804600256A
:101DB000144602FB06F94AE008EB0500A7EB040A0B
:101DC00000900AF0FF01C0B200F098F8A8EB050BF4
:101DD0000AF0FF010BF0FF0000F090F807EB040A97
:101DE0000AF0FF010BF0FF0000F088F800980AF0FD
:101DF000FF01C0B200F082F808EB0400A7EB050A6F
:101E000000900AF0FF01C0B200F078F8A8EB040BD4
:101E10000AF0FF010BF0FF0000F070F807EB050A75
:101E20000AF0FF010BF0FF0000F068F800980AF0DC
:101E3000FF01C0B200F062F86D1C05FB05F004FB69
:101E4000040006FB1600002801DD641E6D1E600004
:101E500060434845B0DABDE8F88F2DE9F84F171A0E
:101E60005E1A99469246002F01DD012300E000230F
:101E70004FF0FF3202EB43030093002E01DD0123FC
:101E800000E00023002502EB430B80460C46002FA8
:101E900000DA7F42002E00DA7642B74213DC29E0F6
:101EA0000A98E1B2002808F0FF0002D000F026F8FE
:101EB00001E0FFF763FF3544B7EB450F01DC5C44FD
:101EC000ED1B00998844D045EAD1BDE8F88F0A9807
:101ED000E1B2002808F0FF0002D000F00FF801E0A6
:101EE000FFF74CFF3D44B6EB450F02DC0099AD1BFC
:101EF00088445C444C45EAD1E7E700007F280CD8D1
:101F00003F290AD8CA0801F0070301219940034B71
:101F100003EBC000835C0B4383547047B000002088
:101F200010B500F085F82E4C002240212046FEF727
:101F3000DDFCC820FEF7EAFB012240212046FEF727
:101F4000D5FCAE2000F0DFFBD52000F0DCFB8020CC
:101F500000F0D9FBA82000F0D6FB3F2000F0D3FB17
:101F6000D32000F0D0FB002000F0CDFB402000F09B
:101F7000CAFB8D2000F0C7FB142000F0C4FB20201A
:101F800000F0C1FB022000F0BEFBA12000F0BBFB73
:101F9000C82000F0B8FBDA2000F0B5FB122000F0FA
:101FA000B2FB812000F0AFFBEF2000F0ACFBD920AA
:101FB00000F0A9FBF12000F0A6FBDB2000F0A3FB62
:101FC000302000F0A0FBA42000F09DFBA62000F034
:101FD0009AFBAF2000F097FBBDE81040FFF7BABEB8
:101FE000000801400246012000E05043491EC9B2EA
:101FF000FBD2704770B50D4E002400BF04F1B00055
:10200000C0B200F080FB002000F07DFB102000F04B
:102010007AFB002506EBC500005D00F077FB6D1C28
:10202000802DF7DB641C082CE8DB70BDB0000020BD
:10203000F0B585B01A4800240294816941F0080186
:102040008161816901F008010491816941F02001F9
:102050008161816901F020010491816941F00401ED
:1020600081618069012500F0040004901820CDE909
:1020700000050C4F0226694603963846FEF758FBCA
:102080004020CDE90005CDE9024669463846FEF715
:102090004FFB012240213846FEF728FC05B0F0BD79
:1020A00000100240000801402DE9FF4F1D460C467C
:1020B0008946580700D0012000EBD5006908484345
:1020C000203A00F0FF0A02F0FF0B002632E00C2D50
:1020D00012D0102D14D0182D2ED118490BEBCB0097
:1020E00001EB80004FF00008875D2146380600981C
:1020F0000AD5FFF703FF09E00BEB4B001049EFE7B0
:10210000104901EB0B10EDE7FFF738FE7806641C71
:10211000070EE4B2A4EB0900A84205D100984C4692
:10212000401CC0B2009004E008F10108B8F1080FAB
:10213000DBDB761C5645CADBBDE8FF8FF83A0008AA
:1021400094300008083500082DE9F0471D46DDF8F9
:10215000208091468A46074600244FEA580617E039
:10216000281B401EC1B20A20FFF73CFFB9FBF0F06C
:102170000A21B0FBF1F201FB120068B13030C2B2AB
:1021800006FB0470C0B243465146FFF78DFF641C46
:10219000AC42E5DBBDE8F08706FB0470C0B2434605
:1021A0003022F1E72DE9F0411E46154688460446E7
:1021B000C3F180070FE0334641462046FFF774FF26
:1021C00004EB5600C4B2A74204DA08F1020000246E
:1021D00000F0FF086D1C2A78A2F120005E28EAD9E1
:1021E000BDE8F081704700000148FEF7B1BE000075
:1021F000B004002038B50B4600920446002280212E
:1022000000F010F8002804D0606D40F020006065F8
:10221000032038BD10B5406A0021C187C186FEF792
:1022200095FE10BD2DE9F0411D4617460E460446A9
:10223000DDF8188035E0681C33D02DB1FEF75CFB6B
:10224000A0EB0800A8422CD32068416821F0E001EF
:1022500041606068B0F5827F0BD1A068B0F5004F97
:1022600002D0B0F5806F04D12068016821F04001F0
:102270000160A06AB0F5005F0AD1206801684DF6E0
:10228000FF72114001602068016841F40051016053
:10229000012084F85100002084F850000320BDE89C
:1022A000F0812068806836EA000004D00020B8423F
:1022B000C1D10020F3E70120F9E7000013B50F4C6E
:1022C00009B1012200E0002210212046FEF70EFB9A
:1022D000002208212046FEF709FB0A230122694655
:1022E0000748FEF719FF012208212046FEF7FEFAF3
:1022F000012210212046FEF7F9FA1CBD000801401A
:10230000B00400207047FEF7FDBA30B58FB0282129
:102310006846FDF71EFF14210AA8FDF71AFF0125E4
:102320002804CDE90050002407946846FEF78CFC91
:102330000F200A90CDE90B540D9400210AA80E94A9
:10234000FEF776FB0FB030BD0D48016841F001018A
:10235000016041680B4A1140416001680A4A11401E
:102360000160016821F480210160416821F4FE01CF
:1023700041604FF41F0181600449C0030860704749
:10238000001002400000FFF8FFFFF6FE08ED00E03D
:102390000148FFF773B800000805002070B5026817
:1023A000134B144C4FF08046984203D0B04201D0FA
:1023B000A04203D122F070054A682A43984203D014
:1023C000B04201D0A04203D122F44074CA68224333
:1023D00022F080044A69224302608A68C2620A6865
:1023E0008262984201D1096901630121416170BD96
:1023F000002C01400004004010B5846842EA03222A
:1024000024F47F440A432243826010BD826822F094
:1024100070020A4342F007018160704710B5036AF9
:10242000046A24F001040462846924F0F00444EA9C
:10243000021423F00A020A438461026210BD10B53F
:10244000036A23F0100303628369046A23F4704370
:1024500043EA023224F0A00343EA011182610162DF
:1024600010BD10B5406A0021C185C184FFF72FFA65
:1024700010BD0168CA6822F49072CA6001684A6996
:1024800022F001024A61202180F83A10704710B50D
:1024900090F83A10222901D0022010BD8168B1F5D0
:1024A000805F11D00169002901681FD0496801F0DF
:1024B0007F03816A4A1C82620B70C18D491E090428
:1024C000090CC18518D02BE00269816A002A0268D4
:1024D000526805D0D2B20A80816A491C8162ECE759
:1024E000C2F308020A80816A891CF7E74A68816A98
:1024F0004B1C83620A70E0E70168CA6822F0200280
:10250000CA600168CA6822F48072CA6001684A69B8
:1025100022F001024A61202180F83A10FFF7FAFA0E
:10252000002010BD2DE9F041044600680169E26811
:1025300021F44051114301612169A0680843616998
:1025400008432168CA6841F20C639A430243CA6097
:1025500020684169A26921F44071114341614C49ED
:1025600020686425322688423CD1FEF727FB00EB29
:10257000C00101EB001061688900B0FBF1F7FEF7C4
:102580001DFB00EBC00101EB00106168B046890043
:10259000B0FBF1F0B0FBF5F06FF01801484307EB2A
:1025A000800106EB0110B0FBF5F000F0F006FEF73D
:1025B00005FB00EBC00101EB001061688900B0FB76
:1025C000F1F0B0FBF5F006EB0016FEF7F7FA00EBC2
:1025D000C00101EB001061688900B0FBF1F7FEF764
:1025E000EDFA3BE0FEF7DAFA00EBC00101EB001078
:1025F00061688900B0FBF1F7FEF7D0FA00EBC0018B
:1026000001EB00106168B0468900B0FBF1F0B0FB4F
:10261000F5F06FF01801484307EB800106EB01105D
:10262000B0FBF5F000F0F006FEF7B8FA00EBC001E1
:1026300001EB001061688900B0FBF1F0B0FBF5F030
:1026400006EB0016FEF7AAFA00EBC00101EB001042
:1026500061688900B0FBF1F7FEF7A0FA00EBC0015A
:1026600001EB001061688900B0FBF1F0B0FBF5F000
:102670006FF01801484307EB800108EB0110B0FB35
:10268000F5F0216800F00F0030448860BDE8F0816B
:102690000038014090F83910212901D002207047FC
:1026A0008168B1F5805F016A0BD04A1C0262026842
:1026B00009785160C18C491E0904090CC1840ED0EF
:1026C00017E009880268C1F3080151600169002917
:1026D000016A02D0491C0162ECE7891CFBE7016832
:1026E000CA6822F08002CA600068C16841F04001F7
:1026F000C1600020704700000148FFF7E9B8000002
:1027000048050020FEE70021FFF7D8BD0121FFF7B3
:10271000D5BD490050EAC12018BF04204A0D18BF9A
:1027200040F0010040F2FF72B2EB515F08BF40F091
:102730000200012808BF0520704700002DE9F74F6F
:10274000144694B00021C4E902111599079121F0B3
:102750000045C9498D4206DC1599C4E9000117B04E
:102760000020BDE8F08FC549DFF814A3A9423CDD85
:102770000799C44E0029C44FC44A1599534619DD20
:10278000FDF793FD554506D0C14AC24BFDF78DFDBF
:10279000C4E900010AE04FF0D352BE4BFDF785FDBE
:1027A00032463B46FDF781FDC4E9000117B0012028
:1027B000BDE8F08FFDF7D8FC554506D0B44AB54BBF
:1027C000FDF7D2FCC4E900010AE04FF0D352B14B4F
:1027D000FDF7CAFC32463B46FDF7C6FCC4E90001E2
:1027E00017B04FF0FF30BDE8F08FAB49A942159903
:1027F00078DB21F0004183468846A84AA84BFDF7C4
:102800005AFD0022A74BFDF7AFFCFDF74CFE0990E7
:10281000FDF710FF06460F469C4A5346FDF74BFD59
:1028200043465A46FDF744FD80468A46984A994BEE
:1028300030463946FDF73FFD2A0D01250B924246F1
:102840005346FDF735FD032DC4E9000139D00B983F
:10285000C1F30A51401A05EB45111139814230DAB2
:102860009148C346784400EB0510CDF80CA00C90BD
:10287000D0E9002330463946FDF71DFD02460B46E0
:102880000491069058460399FDF70FFD80468A464D
:1028900002460B4658460399FDF707FD049B069A2E
:1028A000FDF703FD83460C9803913946D0E90223D6
:1028B0003046FDF700FD5A46039BFDF7F6FC6D1C04
:1028C000BDE707980028A2BF099817B0BDE8F08FB0
:1028D000616881F000416160099817B04042BDE82D
:1028E000F08FFFE784461598C1F31301C0F30A5037
:1028F000A0F2F5304FEA601800F01F06C6F1200084
:10290000139000200690079041F4801E05206D462C
:1029100076B1664A08EB00017A4452F8213002EBA6
:102920008101B3404A68139922FA01F1194305E085
:102930005F4908EB0002794451F82210A1FB0E27F1
:10294000A1FB0C131A449A4234BF0123002303EB6A
:10295000070A05EB8003D3E901B70F448F4234BF68
:102960000121002193448B4411B1934502D903E026
:10297000934501D2012100E00021C3E901B7514490
:1029800045F82010011EA0F10100C1DC0298059F4E
:1029900000F10050800F12900298DDE9035680008C
:1029A000FDF748FE834628460D91FDF754FE6FF073
:1029B0001D02FDF761FDCDE90E013046FDF74BFE2E
:1029C0006FF03D02FDF758FD80468A463846FDF718
:1029D00042FE6FF05D02FDF74FFD0746424653464B
:1029E0001191FDF7C1FBDDE90E23FDF7BDFB5A4652
:1029F0000D9BFDF7B9FB00250E465A4628460D9B58
:102A0000FDF753FCDDE90E23FDF74FFC424653462C
:102A1000FDF74BFC3A46119BFDF74AFCDFF898A006
:102A2000244A5346FDF747FC07468846234A244B71
:102A300031462846FDF73FFC3A464346FDF794FBF6
:102A4000074688464FF0A842534631462846FDF7D0
:102A500032FC3A464346FDF787FB159A12F0004FC9
:102A600004D0129A81F0004152421292C4E900014E
:102A7000129817B0BDE8F08FFB21E93F7CD90240E6
:102A8000FB21F93F7370032E8A19A33B00004054C9
:102A90003163621A61B4D03DFB21394183C8C96DED
:102AA000305FE43F0000E03F38200000B41F00002A
:102AB000961F0000182D4454FB21F93D3326A61122
:102AC000460B113C2DE9FF4D21F0004807460C460E
:102AD000B8F1795F08DAFDF7E6FC002801BF0020B5
:102AE000324904B0BDE8F08D3A46234610461946F7
:102AF000FDF7E1FB054602462D480E460B46062132
:102B0000784400F05DF82A463346FDF7D4FBDDE952
:102B1000022382468B4638462146FDF7CCFB04460D
:102B20000F4652465B4628463146FDF7C4FB224617
:102B30003B46FDF7BAFB07468A464FF0FF32284670
:102B40003146FDF799FC1B4A90450ADA3A4653464E
:102B5000FDF7ABFB04B00022BDE8F04D134BFDF7D1
:102B6000A7BB154A4245A8BFA8F500154FF00004C1
:102B7000B8BF124D22462B46FDF797FB0646884606
:102B800022462B4600200949FDF78FFB04460D46DF
:102B90003A46534630464146FDF787FB04B022468D
:102BA0002B46BDE8F04DFDF783BB00000000F03F71
:102BB0006C1D00003333D33F0000E93F0000D23FDB
:102BC0002DE9F0414F1E00EBC7010446D1E9000199
:102BD00015461E4637F006020DD02A463346FDF74D
:102BE0006AFB7F1E04EBC703D3E90023FDF7BCFAA1
:102BF00037F00602F1D1022F25D0042F13D0062F73
:102C000018BFBDE8F0812A463346FDF754FBD4E9EE
:102C10000A23FDF7A9FA2A463346FDF74CFBD4E90F
:102C20000823FDF7A1FA2A463346FDF744FBD4E911
:102C30000623FDF799FA2A463346FDF73CFBD4E913
:102C40000423FDF791FA2A463346FDF734FBD4E915
:102C50000223FDF789FA2A463346FDF72CFBD4E917
:102C60000023BDE8F041FDF77FBA00002DE9FF4DDC
:102C7000054621F0004084B00C46B0F1795F0BDAD4
:102C80002846FFF746FD042808BF00F06FF82846E5
:102C900008B02146BDE8F08D2A460B461046FDF7E8
:102CA0000AFB06460F462A462346FDF704FB8046EC
:102CB00026488A4632463B4605217844FFF780FF86
:102CC00083461098029160B3214A224B40465146F8
:102CD000FDF7F1FACDE900015A4640465146029B04
:102CE000FDF7E9FA82468846DDE906014FF0FF323A
:102CF000FDF7C2FB52464346FDF7D7FA32463B4644
:102D0000FDF7D9FADDE90623FDF7CFFADDE9002367
:102D1000FDF7CBFA08B02A462346BDE8F04DFDF793
:102D2000C7BA0B465A4630463946FDF7C4FA084A38
:102D3000084BFDF719FA42465346FDF7BCFA08B0B6
:102D40002A462346BDE8F04DFDF70EBAAA1C000046
:102D5000495555555555C5BF0122FDF78DBB00227C
:102D6000134610461146FDF718BB0000024A00202A
:102D70001107FDF781BB000001FDFFFF02E008C85D
:102D8000121F08C1002AFAD170477047002001E0E5
:102D900001C1121F002AFBD17047000001490860E1
:102DA00070470000AC00002000B5244B21F0004229
:102DB00087B09A42DCBF0022134629DD204B9A429D
:102DC00008D140B94FF00100FFF7E8FFFFF7C7FF58
:102DD00007B000BD03DBFFF7BFFF07B000BD02AACD
:102DE000FFF7ACFC10F0030104BF0DF1080C9CE8E8
:102DF0000F000DD0012001290ED0022914D00DF1B1
:102E0000080C00909CE80F00FFF730FF07B000BDF2
:102E1000FFF758FE07B000BD0DF1080C00909CE8CC
:102E20000F00FFF723FF05E00DF1080C9CE80F00F1
:102E3000FFF748FE07B081F0004100BDFB21E93FEC
:102E40000000F07F810705D1642190FBF1F201FBC6
:102E5000120141B94FF4C87190FBF1F201FB12006D
:102E600008B10020704701207047000008B5FDF749
:102E700051FDFFF74AFAFEF7D7FEFEF72FFFFEF7E8
:102E800013FF584856490C2501604FF4E131416069
:102E900000218160C160C0E904158161C161FEF754
:102EA0009FFDFFF73DF84F484038FEF761FA0122D9
:102EB0004D494C48FEF704FE20214020FFF71EF844
:102EC000202211464020FEF76DFF402301241A46C0
:102ED0003B2118460094FEF7C0FF202360221946CC
:102EE0005B200094FEF7B9FF402200230521104625
:102EF0000094FEF7B2FF20231A46194625200094BD
:102F0000FEF7ABFF3C23502237214E200094FEF702
:102F1000A4FF30235C222D2157200094FEF79DFF53
:102F200010235C22132158200094FEF796FF0523FE
:102F3000502209214D200094FEF78FFF05233022F7
:102F4000092133200094FEF788FF10232422132147
:102F50002A200094FEF781FF302324222D212A20ED
:102F60000094FEF77AFF3C2330223721342000946E
:102F7000FEF773FF2022402300211046FEF76DFF6D
:102F800000210C2319A20846FFF70CF90C23592243
:102F90000F210020FFF788F8042340F2E4720F218C
:102FA00008200095FFF7D0F80C234D221E210020A9
:102FB000FFF77AF802230C221E2108200095FFF764
:102FC000C3F80C2344222D210020FFF76DF80223C3
:102FD00013222D2108200095FFF7B6F8FEE7000028
:102FE000003801404805002000000020446174655D
:102FF0003A00000000B5254B21F0004287B09A420C
:1030000003DC0022134600922BE0214B9A4208D1A8
:1030100040B94FF00100FFF7C1FEFFF7A0FE07B077
:1030200000BD03DBFFF798FE07B000BD02AAFFF763
:1030300085FB10F003014FF001000DD0012914D0E1
:1030400002291AD00DF1080C9CE80F00FFF73AFD99
:1030500007B081F0004100BD0DF1080C00909CE824
:103060000F00FFF703FE07B000BD0DF1080C9CE850
:103070000F00FFF727FD07B000BD0DF1080C009011
:103080009CE80F00FFF7F2FDE2E70000FB21E93FBB
:103090000000F07F000000000000000000000000C1
:1030A000000000003F400000000000000000300071
:1030B000400030004000000009000BC03D000BC084
:1030C0003D00090018C024407FE02240318000000C
:1030D000180024C01B000D803240018003801C407A
:1030E00027401C80074000401000600000000000E6
:1030F000000000000000000000001F802040402071
:103100000000402020401F80000000000900060051
:103110001F80060009000000040004003F80040036
:10312000040000000010006000000000000000002B
:10313000040004000400040004000000000000403B
:103140000000000000000000002001C00600380060
:10315000400000001F802040204020401F800000D1
:10316000000010403FC000400000000018C0214097
:103170002240244018400000108020402440244079
:103180001B80000002000D0011003FC00140000044
:103190003C80244024402440238000001F802440A1
:1031A00024403440038000003000200027C0380055
:1031B000200000001B802440244024401B8000008D
:1031C0001C0022C0224022401F800000000000009E
:1031D0000840000000000000000000000460000043
:1031E00000000000000004000A00110020804040A0
:1031F0000900090009000900090000000000404022
:10320000208011000A000400180020002340240040
:10321000180000001F802040274029401F40000068
:10322000004007C039000F0001C0004020403FC0EF
:10323000244024401B8000001F802040204020406C
:103240003080000020403FC0204020401F80000010
:1032500020403FC024402E4030C0000020403FC0EE
:1032600024402E00300000000F001080204022403B
:103270003380020020403FC0040004003FC02040D3
:10328000204020403FC0204020400000006020201F
:1032900020203FC02000200020403FC024400B00E1
:1032A00030C0204020403FC020400040004000C0CF
:1032B0003FC03C0003C03C003FC0000020403FC076
:1032C0000C4023003FC020001F80204020402040B1
:1032D0001F80000020403FC0244024001800000050
:1032E0001F802140214020E01FA0000020403FC05F
:1032F0002440260019C0004018C024402440224029
:1033000031800000300020403FC0204030000000ED
:1033100020003F80004000403F80200020003E0011
:1033200001C0070038002000380007C03C0007C07B
:1033300038000000204039C0060039C0204000009D
:103340002000384007C0384020000000304021C035
:103350002640384020C00000000000007FE04020F0
:1033600040200000000070000C00038000400000BE
:103370000000402040207FE000000000000020000E
:10338000400020000000000000100010001000109D
:1033900000100010000000004000000000000000CD
:1033A000000002800540054003C0004020003FC0EF
:1033B00004400440038000000000038004400440F7
:1033C0000640000000000380044024403FC000404D
:1033D0000000038005400540034000000000044059
:1033E0001FC0244024402000000002E0055005508A
:1033F0000650042020403FC00440040003C00040A9
:103400000000044027C00040000000000010001031
:10341000041027E00000000020403FC001400700EA
:1034200004C00440204020403FC000400040000055
:1034300007C0040007C0040003C00000044007C028
:103440000440040003C00040000003800440044026
:1034500003800000041007F00450044003800000C3
:10346000000003800440045007F00010044007C02F
:103470000240040004000000000006400540054032
:1034800004C00000000004001F8004400040000051
:10349000040007800040044007C00040040007000B
:1034A00004C0018006000400060001C0070001C03E
:1034B00006000000044006C0010006C004400000F1
:1034C0000410071004E0018006000400000004401E
:1034D00005C00640044000000000000004007BE03E
:1034E00040200000000000000000FFF0000000008D
:1034F000000040207BE0040000000000400080004D
:1035000040002000200040000000000000000000FB
:1035100000000000000000000000000000001FCCC0
:10352000000C0000000000000000080030006000F7
:103530000800300060000000022003FC1E20022072
:1035400003FC1E200220000000000E1811043FFFA3
:1035500010840C78000000000F0010840F3800C0A9
:10356000077818840078000000780F8410C41124B4
:103570000E9800E400840008080068007000000055
:10358000000000000000000000000000000007E054
:1035900018182004400200000000400220041818FF
:1035A00007E00000000000000240024001800FF030
:1035B00001800240024000000080008000800FF87F
:1035C00000800080008000000001000D000E00005F
:1035D000000000000000000000000080008000806B
:1035E00000800080008000800000000C000C0000C3
:1035F000000000000000000000000006001800604D
:103600000180060018002000000007F008081004E0
:103610001004080807F000000000080408041FFC5C
:10362000000400040000000000000E0C1014102420
:10363000104411840E0C000000000C18100411043A
:10364000110412880C700000000000E00320042424
:1036500008241FFC0024000000001F98108411049F
:103660001104108810700000000007F00888110491
:10367000110418880070000000001C00100010FCED
:1036800013001C001000000000000E3811441084CC
:10369000108411440E38000000000700088C10440C
:1036A0001044088807F00000000000000000030C30
:1036B000030C0000000000000000000000010106F3
:1036C0000000000000000000000000800140022017
:1036D000041008081004000002200220022002202A
:1036E000022002200220000000001004080804103C
:1036F000022001400080000000000E001200100CAB
:10370000106C10800F00000003E00C1813E4142468
:1037100017C4082807D000000004003C03C41C4064
:10372000074000E4001C000410041FFC11041104F5
:1037300011040E880070000003E00C18100410043F
:10374000100410081C10000010041FFC10041004CA
:103750001004080807F0000010041FFC11041104F5
:1037600017C410040818000010041FFC11041100F5
:1037700017C010000800000003E00C18100410042B
:1037800010441C780040000010041FFC10840080CE
:10379000008010841FFC10040000100410041FFCA3
:1037A00010041004000000000003000110011001CB
:1037B0001FFE10001000000010041FFC1104038005
:1037C0001464181C1004000010041FFC10040004F2
:1037D00000040004000C000010041FFC1F0000FC8B
:1037E0001F001FFC1004000010041FFC0C04030049
:1037F00000E010181FFC100007F008081004100467
:103800001004080807F0000010041FFC108410804A
:10381000108010800F00000007F0081810241024FA
:10382000101C080A07F2000010041FFC110411000C
:1038300011C011300E0C000400000E1C1104108485
:10384000108410441C3800001800100010041FFCE5
:10385000100410001800000010001FF810040004ED
:10386000000410041FF8100010001E0011E0001CDE
:10387000007013801C0010001FC0103C00E01F00EF
:1038800000E0103C1FC000001004180C163401C0EA
:1038900001C01634180C100410001C00130400FCA6
:1038A00013041C00100000000804101C1064108495
:1038B00013041C04101800000000000000007FFE2C
:1038C0004002400240020000000030000C00038073
:1038D0000060001C000300000000400240024002A3
:1038E0007FFE0000000000000000000020004000FB
:1038F0004000400020000000000100010001000124
:103900000001000100010001000040004000200013
:1039100000000000000000000000009801240144A5
:103920000144014400FC000410001FFC0088010455
:10393000010400880070000000000070008801048D
:1039400001040104008800000000007000880104E8
:10395000010411081FFC0004000000F801440144A8
:103960000144014400C800000000010401040FFCF0
:103970001104110411001800000000D601290129CA
:10398000012901C90106000010041FFC0084010088
:103990000100010400FC000400000104190419FCEA
:1039A0000004000400000000000000030001010109
:1039B000190119FE0000000010041FFC0024004043
:1039C00001B4010C010400000000100410041FFCED
:1039D0000004000400000000010401FC01040100D7
:1039E00001FC0104010000FC010401FC0084010051
:1039F0000100010400FC0004000000F801040104BF
:103A00000104010400F80000010101FF0085010428
:103A100001040088007000000000007000880104AC
:103A20000104010501FF00010104010401FC0084FF
:103A30000104010001800000000000CC01240124E9
:103A4000012401240198000000000100010007F892
:103A50000104010400000000010001F8000400045A
:103A60000004010801FC0004010001800170000C49
:103A7000001001600180010001F0010C003001C064
:103A80000030010C01F0010000000104018C007401
:103A90000170018C01040000010101810171000E1F
:103AA000001801600180010000000184010C013454
:103AB00001440184010C000000000000000000002F
:103AC00001003EFC40024002000000000000000037
:103AD000FFFF0000000000000000400240023EFC2A
:103AE0000100000000000000000060008000800075
:103AF0004000400020002000000000000000000006
:103B000000000000000000000000000000000000B5
:103B100000000000000000000000000000000000A5
:103B200000000000000000000000000F80380FFEC1
:103B3000380F803800000000000000000000000086
:103B40000000000000000100000600000C0000382A
:103B500000003100000600000C00003800003000BA
:103B6000000000000000000061800067F807F98095
:103B70000061800061800061800061800067F8075B
:103B8000F98000618000000000000000000001C01A
:103B9000E003E0F00630080418081FFFFE040E08DA
:103BA0000787F00381E000000000000001F000063C
:103BB0000C00040408060C7001F9C0000E00003B64
:103BC000E000EC18070808040C180003E0000000EF
:103BD0000001E00007F003F818041C0804170807A8
:103BE000E1D003C0E00023B0003C08002008000042
:103BF0001000000000000001000031000032000051
:103C00001C00000000000000000000000000000098
:103C100000000000000000000000000000000000A4
:103C200000000000000000007F0001FFC00780F0DE
:103C30000C0018100004200002000000000000200A
:103C400000021000040C00180780F001FFC0007F84
:103C50000000000000000000000000000000000064
:103C6000000000004200006600006600003C00000A
:103C7000180003FFC0001800003C0000660000664A
:103C800000004200000000000800000800000800DA
:103C900000080000080001FFC00008000008000044
:103CA00008000008000008000000000000010000FB
:103CB0003100003200001C00000000000000000085
:103CC00000000000000000000000000000000000F4
:103CD00008000008000008000008000008000008B4
:103CE00000000800000800000800000800000000B4
:103CF000000000000000000038000038000038001C
:103D000000000000000000000000000000000000B3
:103D10000000000000000000000600001C00007011
:103D2000000180000E0000380000C0000700001CE9
:103D30000000300000000000000000007F8001FF54
:103D4000E00380700600180400080400080600184C
:103D500003807001FFE0007F800000000000000091
:103D6000000001000801000801000803FFF807FF38
:103D7000F800000800000800000800000000000033
:103D800000000001C03802C0580400980401180463
:103D90000218040418061C1803F81801E0F80000C3
:103DA0000000000000000001C0E003C0F0040008B3
:103DB00004080804080806180803F41801E7F000CE
:103DC00001E0000000000000000000000300000D02
:103DD0000000110000610000810803010807FFF8DE
:103DE0000FFFF800010800010800000000000000BB
:103DF00000E007FCD00608080610080610080610A8
:103E000008061838060FF00607C000000000000082
:103E1000000000003F8001FFE00384300208180426
:103E20001008041008041008071810030FF000070A
:103E3000C000000000000000000003C000070000F8
:103E40000600000600F80607F806180006E000075E
:103E5000000006000000000000000001E1E003F7A0
:103E6000F0063410041808041808040C08040C08A0
:103E700006161803F3F001C1E00000000000000086
:103E8000F80003FC300306380402080402080402A8
:103E9000080404100308F001FFC0007F00000000C8
:103EA0000000000000000000000000000000000012
:103EB000703800703800703800000000000000000A
:103EC00000000000000000000000000000000000F2
:103ED00000000000301A00301C000000000000004C
:103EE00000000000000000000000000000000008CA
:103EF000000014000022000041000080800100400A
:103F0000020020040010080008000000000000006B
:103F100021000021000021000021000021000021DB
:103F2000000021000021000021000021000000000D
:103F3000000000000000080008040010020020013A
:103F400000400080800041000022000014000008B2
:103F50000000000000000003C00004C000040000D6
:103F6000080038080F380808380810000C3000071F
:103F7000E00003C000000000000000003F8000FFE0
:103F8000E0038070020F1006708804C08804830864
:103F9000047F8802C09003012000FE40000008005A
:103FA00000180001F8003E0801C20007020007E205
:103FB0000000FE00001FC80001F8000038000008E3
:103FC00004000807FFF807FFF804080804080804BD
:103FD000080804080806180803F41801E7F00001AF
:103FE000E0000000000000003F8001FFE00380705F
:103FF0000200180400080400080400080400100669
:1040000000200780C000000004000807FFF807FF39
:10401000F804000804000804000804001802001056
:1040200003807001FFE0007F8000000004000807AB
:10403000FFF807FFF8040808040808040808040843
:1040400008043E0804000806001801006000000093
:1040500004000807FFF807FFF80408080408000434
:104060000800040800043E0006000006000001806D
:1040700000000000000000003F8001FFE0038070AE
:104080000600180400080402080402080203F007EE
:1040900083F000020000020004000807FFF807FF99
:1040A000F8040808000800000800000800000800E4
:1040B00004080807FFF807FFF804000800000000E4
:1040C000000004000804000804000807FFF807FFC8
:1040D000F8040008040008040008000000000000C4
:1040E00000000000000600000700000104000104B9
:1040F000000104000307FFFE07FFFC0400000400AA
:104100000004000004000807FFF807FFF8040C088B
:10411000001800003E0004C7800503C80600F8042C
:10412000003804001800000804000807FFF807FF23
:10413000F80400080000080000080000080000085B
:1041400000000800001800006000000004000807DC
:10415000FFF807800807FC00007FC00003F8000795
:10416000C000780007800807FFF807FFF804000880
:1041700004000807FFF807000803C00000E0000083
:104180003800001E000007000001C00400F007FF17
:10419000F8040000000000007F8001FFE003807051
:1041A0000600180400080400080600180300300187
:1041B000FFE0007F8000000004000807FFF807FF11
:1041C000F8040408040400040400040400040400C7
:1041D000060C0003F80001F00000000000000000E1
:1041E0007F8001FFE00380700600880400880400DF
:1041F000C806003C03003E01FFE6007F840000008B
:1042000004000807FFF807FFF80408080408000482
:104210000C00040F00040BC00610F003F03801E09E
:104220000800000800000001E0F803F0300630103C
:10423000041808041808040C08040C0802061802E4
:1042400007F00781E0000000018000060000040084
:104250000004000004000807FFF807FFF804000846
:1042600004000004000006000001800004000007B4
:10427000FFE007FFF004001800000800000800003D
:104280000800000800000804001007FFE004000018
:1042900004000006000007E00007FE00041FE00025
:1042A00001F80000380001E0043E0007C0000600ED
:1042B0000004000004000007E00007FFC0041FF82E
:1042C0000007C007F80007FF80043FF80007C0049C
:1042D000F8000700000400000000000400080600C9
:1042E0001807C07805F1C8003E00001F800463E88D
:1042F0000780F8060018040008000000040000060B
:10430000000007800007E008047C08001FF8000791
:10431000F800180804E00807000006000004000088
:104320000000000100080600380400F80403E80457
:104330000F08047C0805F00807C0080700180400EF
:10434000600000000000000000000000000000000D
:104350000000003FFFFE200002200002200002209B
:104360000002200002000000000000000000080021
:104370000007000000C0000038000006000001C077
:1043800000003000000E00000100000000000000EE
:104390000000200002200002200002200002200075
:1043A000023FFFFE000000000000000000000000CF
:1043B00000000000000000000008000010000030B5
:1043C0000000200000300000100000080000000085
:1043D00000000000000001000001000001000001D9
:1043E00000000100000100000100000100000100C8
:1043F00000010000010000010000000000000000BA
:10440000002000002000001000001000000000004C
:10441000000000000000000000000000000000009C
:1044200000F00019F8001B180022080026080024DC
:1044300008002410003FF8001FF8000008000018D2
:1044400000000004000007FFF80FFFF0001818003C
:104450001008002008002008003018001FF0000F8E
:10446000C00000000000000007C0001FF00018306E
:10447000002008002008002008003C08001C100054
:1044800000600000000000000000000007C0001FE6
:10449000F000381800200800200800200804101040
:1044A00007FFF80FFFF00000100000000000000000
:1044B00000000007C0001FF0001230002218002288
:1044C00008002208003208001E10000E2000000024
:1044D00000000000200000200800200801FFF80371
:1044E000FFF8062008042008042008072000030025
:1044F0000000000000000000000E000E6E001FF320
:104500000031B10020B10020B1003191001F130033
:104510002E1E00200E00300000000004000807FFDF
:10452000F80FFFF80010080020000020000020080D
:10453000003FF8001FF80000080000000000000025
:104540000000002008002008002008063FF8063F71
:10455000F80000080000080000080000000000004B
:104560000000000000000000030000030020010024
:104570002001002003063FFE063FFC000000000073
:104580000000000000000004000807FFF80FFFF81B
:10459000000188000300002FC00038F80020380018
:1045A00020080000080000000000000000000400D7
:1045B0000804000804000807FFF80FFFF8000008CF
:1045C00000000800000800000000000000200800B3
:1045D0003FF8003FF8001008002000003FF8003FBF
:1045E000F8001008002000003FF8003FF800000825
:1045F000000000002008003FF8003FF8001008000D
:104600001000002000002008003FF8001FF8000004
:10461000080000000000000007C0000FF000183084
:104620000030080020080020080030080018300082
:104630000FF00007C0000000000000002001003F54
:10464000FF003FFF00101100200900200800200893
:10465000003038001FF0000FC00000000000000014
:1046600007C0001FF00038180020080020080020B4
:1046700009001011001FFF003FFF000001000000B3
:10468000002008002008002008003FF8003FF80044
:10469000080800100800200800200000300000304A
:1046A00000000000000000000000000C78001E1850
:1046B0000033080023080021080021880021980009
:1046C00030F00038600000000000000020000020F2
:1046D0000000200000FFF003FFF800200800200881
:1046E0000020080000300000000000000000000072
:1046F0002000003FF0007FF80000180000080000D4
:1047000008002010003FF8007FF0000010000000BB
:10471000000000002000003000003C00003F80004E
:1047200023F0000078000070002380003C0000307F
:1047300000002000002000003C00003FE00023F8C3
:104740000000E0002700003E00003FE00021F800EC
:1047500001E0003E000020000000000020080020D2
:1047600008003838003E680027800003C8002CF895
:104770000038380020180020080000000000000069
:104780002000003003003C01003F830023EC0000C8
:1047900070002380003C000020000020000000008A
:1047A0000000000000000038080020380020F80059
:1047B00023E8002F88003E08003808002018000079
:1047C0007000000000000000000000000000000079
:1047D0000000000008000014001FF7FC3000062055
:1047E00000020000000000000000000000000000C7
:1047F00000000000000000000000FFFFFF000000BC
:1048000000000000000000000000000000000000A8
:1048100000002000023000061FF7FC001400000812
:104820000000000000000000000000000000000088
:104830000000001800006000004000004000002060
:1048400000001000000800000400000400000C003C
:10485000001000000000000000000000010203043E
:104860000607080900000000010203040000000020
:104870004C5555555555A53F7751C1166CC156BF7E
:104880009015CB19A001FA3EAD529C804F7E92BE8E
:10489000C4B1B4BD9EEE213ED43888BEE9FAA8BDAD
:1048A00000004054FB21F93F3163621A61B4D03DEE
:1048B0000000601A61B4D03D7370032E8A19A33BC7
:1048C0000000002E8A19A33BC14920259A837B3919
:1048D00000000000000000006E83F9A22915444E7C
:1048E000D15727FCC0DD34F5999562DB4190433CFC
:1048F000AB6351FE61C5BBDE3A6E24B7E0D24D42D8
:10490000EA2E49061C92D1091CEB1DFE3EA729B1D7
:10491000F53582E88444BB2E26709CE9417E5FB465
:1049200039D69139F43953838B5F849C3B28F9BD88
:10493000FF97F81F0F9805DE8B112FEF1F6D0A5A96
:10494000CF7E366DB709CB27663F464F2DEA5F9E77
:10495000C7BA27757BF1E5EBF739073DEA92528A32
:10496000B15FFB6B085D8D1FA6F810111111813F1F
:10497000D561C119A0012ABF7DFEB157E31DC73E15
:10498000EB9C2B8AE6E55ABE7CD5CF5A3AD9E53D59
:10499000B049000800000020B00000007C2D000895
:1049A000604A0008B0000020D80800008C2D0008E4
:1049B00000000000010000000000000000000000F6
:1049C00000000000000000000000000000000000E7
:1049D00000000000000000000000000000000000D7
:1049E00000000000000000000000000000000000C7
:1049F00000000000000000000000000000000000B7
:104A00000000000000804640000000000000104050
:104A1000182D4454FB210940000000001F00000035
:104A20001C0000001F0000001E0000001F0000000E
:104A30001E0000001F0000001F0000001E000000FC
:104A40001F0000001E0000001F0000000100000009
:104A5000100000000000000000A24A040000000056
:04000005080000ED02
:00000001FF
